:020000040800F2
:1000000040090020E90100082320000843190008E6
:100010001F20000835090008C52500080000000061
:10002000000000000000000000000000892000081F
:1000300039090008000000005D200008E1200008E8
:10004000030200080302000803020008030200087C
:10005000030200080302000803020008030200086C
:10006000030200080302000803020008030200085C
:10007000030200080302000803020008030200084C
:10008000030200080302000803020008030200083C
:10009000030200080302000803020008030200082C
:1000A000030200080302000803020008030200081C
:1000B00003020008030200084121000803020008AF
:1000C00003020008030200080302000803020008FC
:1000D0000302000885250008030200080302000847
:1000E00003020008030200080302000800F002F8FF
:1000F00000F06BF80AA090E8000C82448344AAF157
:100100000107DA4501D100F060F8AFF2090EBAE854
:100110000F0013F0010F18BFFB1A43F0010318473B
:1001200064890000848900000A444FF0000C10F834
:10013000013B13F0070408BF10F8014B1D1108BF65
:1001400010F8015B641E05D010F8016B641E01F805
:10015000016BF9D113F0080F1EBF10F8014BAD1C55
:100160000C1B09D16D1E58BF01F801CBFAD505E073
:1001700014F8016B01F8016B6D1EF9D59142D6D3CD
:10018000704700000023002400250026103A28BFF5
:1001900078C1FBD8520728BF30C148BF0B607047F9
:1001A000642900F0C380752900F0C080782900F030
:1001B000F980632900F00383732900F0088300208D
:1001C00070471FB51FBD10B510BD00F085FB11466F
:1001D000FFF7F7FF03F084FF00F0A3FB03B4FFF782
:1001E000F2FF03BC02F073FA094880470948004750
:1001F000FEE7FEE7FEE7FEE7FEE7FEE7FEE7FEE7D7
:10020000FEE7FEE704480549054A064B7047000033
:10021000E9200008ED00000840030020400900200C
:100220004005002040050020704710B54C1084EABE
:10023000530404D54042C1F1000138BF491E1B429E
:1002400004D55242C3F1000338BF5B1E00F0D2F95F
:1002500014F0804F04D04042C1F1000138BF491E64
:1002600014F0004F04D05242C3F1000338BF5B1EAC
:1002700010BD00000FB4044910B503AA029800F0A5
:10028000ABFA10BC5DF814FB0800002070B5044602
:1002900085690068C10601D5302600E02026C00728
:1002A00007D070BDD4E9012130469047206A401C38
:1002B00020626D1EF6D570BD70B504468569007864
:1002C000C00707D170BDD4E9012120209047206AE2
:1002D000401C20626D1EF6D570BD70B50C460546FB
:1002E000012A05D02878800600D5EA69002302E0BB
:1002F000012305E05B1C934202D2E05C0028F9D1A7
:10030000A869E618C01AA861286A18442862284615
:10031000FFF7BCFF04E0D5E9012114F8010B904779
:10032000B442F8D32846FFF7C7FF70BD2DE9F0416E
:100330000646002410687529314616A510D0AFF383
:100340000080002802DA404213A507E031688A07DE
:1003500001D512A502E0490704D511A5012401E049
:10036000AFF3008000210A2206F1240709E0B0FB68
:10037000F2FCB0FBF2F302FB1C003030785418465C
:10038000491C0028F3D123462A463046BDE8F041F7
:1003900000F0B2B9000000002D0000002B000000AA
:1003A0002000000070B504460D4621461068AFF3EA
:1003B00000802188090502D50F4A7A4402E00E4ADE
:1003C0007A440E32002104F1240305E000F00F0608
:1003D0000009965D5E54491C0028F7D1207800235F
:1003E000000704D5702D02D009B102231132204636
:1003F000BDE8704000F080B9848400002DE9F05F12
:10040000894604464FF0000ADFF874B1FB44C0F897
:1004100020A02046E1688847002874D0252806D00F
:10042000D4E901219047206A401C2062F1E70026B0
:100430005F462046E16888472028054607DB312DC6
:1004400005D2781910F8200C08B10643F1E7B0077F
:1004500001D526F00406C4F81CA00027C4F818A093
:100460002A2D09D0284602F02BF938B304EB87086F
:10047000303DC8F8185019E059F8041B204604EB29
:1004800087029161E1688847012F054618D1E0692C
:10049000002820DA26F020061DE0D8F8180000EB2E
:1004A000800005EB40003038C8F818002046E168AD
:1004B0008847054602F004F90028EED1012F0AD042
:1004C0002E2D08D12046E16888477F1C0546022F63
:1004D00046F02006C4DBA069002803DA404246F05B
:1004E0000106A061F00701D026F010066C2D0BD09C
:1004F000682D09D04C2D39D06A2D35D0742D35D0CA
:100500007A2D33D016E038E0E1682F462046884740
:10051000B842054609D16C2F26D04FF48060E168BF
:10052000064320468847054604E06C2F1AD04FF456
:10053000807006430DB3A5F14100192802D820357B
:1005400046F400664A462946204626604E46FFF796
:1005500027FE80B101280BD0F61D26F0070000F120
:10056000080956E74020E4E78020D8E70020D6E7D6
:1005700006F104094DE7284652E7206ABDE8F09FDE
:100580005A84000040EA010310B59B070FD1042AEA
:100590000DD310C808C9121F9C42F8D020BA19BA4E
:1005A000884201D9012010BD4FF0FF3010BD1AB1B3
:1005B000D30703D0521C07E0002010BD10F8013B08
:1005C00011F8014B1B1B07D110F8013B11F8014B2F
:1005D0001B1B01D1921EF1D1184610BD02F0FF0382
:1005E00043EA032242EA024200F00AB97047704728
:1005F0007047704753EA020C00F069802DE9F04B18
:100600004FF00006002B1FBFB3FA83F503FA05F481
:1006100024FA05F65E4012BF1643B2FA82F502FADA
:1006200005F4C5F120051EBF22FA05FC44EA0C04BE
:10063000203556EA044C4FEA144418BF641C4FF0AE
:1006400000084FF00009904271EB030C39D30029E8
:1006500019BFB1FA81F701FA07F6B0FA80F700FA8C
:1006600007F6C7F120071EBF20FA07FC46EA0C0672
:100670002037B6FBF4FCA7EB0507103F07F01F0B74
:10068000CBF120060CFA0BFB2CFA06F644BFB3465E
:100690000026202FA4BF5E464FF0000B5BEA060C3D
:1006A00008BF4FF0010B19EB0B09ABFB027C48EBC9
:1006B0000608C01B06FB02CC0BFB03CC71EB0C0144
:1006C000C1E70B46024641464846BDE8F08B13B5EC
:1006D0004FF000004FF00001AFF30080BDE81C4078
:1006E000704710B500F0ACF8006810BD10B50446B6
:1006F00000F0A6F8046010BD2DE9F0470D469946BC
:100700009246044600F124080168880604D5E06991
:1007100021F01001216000E00120A84201DD471B0B
:1007200000E00027A1697A1902EB0900081AA0610C
:100730002078C00602D42046FFF7A8FD002608E076
:10074000D4E901211AF806009047206A401C761C63
:1007500020624E45F4DB2078C0060AD52046FFF71C
:1007600095FD06E0D4E9012130209047206A401C25
:100770002062381EA7F10107F4DC07E0D4E901216B
:1007800018F805009047206A401C2062281EA5F139
:100790000105F3DC2046FFF78FFD2078000602D527
:1007A0000220BDE8F0870120FBE710B5436913B1D3
:1007B000AFF3008001E0FFF790FD012010BD12783B
:1007C00000F124010A7000224A700122EDE711684D
:1007D0004FF0FF32E9E70000074B70B50D467B4450
:1007E00000F037F80446284600F046F810B14FF004
:1007F000FF3070BD204670BD373200004FF0000260
:100800000429C0F0128010F0030C00F03B80CCF102
:10081000040CBCF1020F18BF00F8012BA8BF20F890
:10082000022BA1EB0C0100F02DB85FEAC17C24BFC4
:1008300000F8012B00F8012B48BF00F8012B70478E
:1008400000487047E002002001694A1C02610878F4
:10085000704700B58FB0CDE9013100210591054900
:100860007944CDE9031011466846FFF7C7FD0FB084
:1008700000BD0000E5FFFFFF007B00F08000704737
:100880004FF0000200B5134694469646203922BF29
:10089000A0E80C50A0E80C50B1F12001BFF4F7AF74
:1008A000090728BFA0E80C5048BF0CC05DF804EB56
:1008B000890028BF40F8042B08BF704748BF20F8C4
:1008C000022B11F0804F18BF00F8012B7047000079
:1008D00000487047E00200207546FFF7F9FFAE467A
:1008E00005006946534620F00700854618B020B53C
:1008F000FFF788FCBDE820404FF000064FF00007EE
:100900004FF000084FF0000B21F00701AC46ACE8B7
:10091000C009ACE8C009ACE8C009ACE8C0098D4624
:10092000704710B50446AFF300802046BDE8104084
:10093000FFF754BC00BFFEE77047000070B50446E7
:10094000002594F82100022803D00420A06301258B
:1009500048E02068006820F00E00216808602068E8
:10096000006820F00100216808601F492068884263
:1009700001D1012026E01C4914312068884201D1B0
:1009800010201FE0184928312068884201D18015C5
:1009900018E015493C312068884201D1801411E0EB
:1009A000114950312068884202D14FF4803009E06B
:1009B0000D4964312068884202D14FF4801001E073
:1009C0004FF08070084908394860012084F8210000
:1009D00000BF002084F8200000BF606B10B12046EB
:1009E000616B8847284670BD080002402DE9F84732
:1009F00003460024002000258446002700226EE1E3
:100A00004FF0010808FA02F4D1F8008008EA040067
:100A1000A0427DD1DFF8D0A2D1F80480A8EB0A096A
:100A2000D0453AD014DCB8F1030F50D009DCB8F14E
:100A3000000F31D0B8F1010F1CD0B8F1020F49D12D
:100A400020E0B8F1110F18D0B8F1120F42D11EE01A
:100A5000B9F5881F25D006DCB9F5803F20D0B9F55F
:100A6000801F37D11AE0B9F5001F18D0B9F5041F5F
:100A700030D117E0D1F80CC02DE0D1F80C8008F18E
:100A8000040C28E0D1F80C8008F1080C23E0D1F820
:100A90000C8008F10C0C1EE000BF00BF00BF00BFBF
:100AA00000BF00BFD1F80880B8F1000F02D14FF0AD
:100AB000040C0BE0D1F80880B8F1010F03D14FF01E
:100AC000080C1C6102E04FF0080C5C6103E04FF081
:100AD000000C00E000BF00BFFF2801D8984601E0ED
:100AE00003F104084646FF2802D84FEA820803E0D3
:100AF000A2F108084FEA88084746D6F800804FF070
:100B00000F0909FA07F928EA09080CFA07F900E0C1
:100B100088E048EA0908C6F80080D1F8048008F0A7
:100B20008058B8F1805F7DD100BFDFF8C081D8F870
:100B3000188048F00108DFF8B491C9F81880C84659
:100B4000D8F8188008F00108CDF8008000BF00BF79
:100B50004FEAB9384FEA920958F829504FEA82789B
:100B60004FEA18794FF00F0808FA09F825EA080546
:100B7000DFF87C81434502D14FF0000816E0DFF832
:100B80007481434502D14FF001080FE0DFF868811E
:100B9000434502D14FF0020808E0DFF86081434589
:100BA00002D14FF0030801E04FF004084FEA8279C8
:100BB0004FEA197908FA09F848EA0505DFF8408193
:100BC0004FEA920948F82950D1F8048008F4803897
:100BD000B8F5803F0AD1DFF82C81D8F8008048EAC8
:100BE0000008DFF82091C9F8008009E0DFF81481DF
:100BF000D8F8008028EA0008DFF80891C9F80080DA
:100C0000D1F8048008F40038B8F5003F10D1DFF8BF
:100C1000F48008F10408D8F8008048EA0008DFF8FA
:100C2000E49000E05AE009F10409C9F800800DE001
:100C3000DFF8D08008F10408D8F8008028EA00081E
:100C4000DFF8C09009F10409C9F80080D1F80480E8
:100C500008F48018B8F5801F0ED1DFF8A88008F1DD
:100C60000808D8F8008048EA0008DFF8989009F1F1
:100C70000809C9F800800DE0DFF8888008F108084D
:100C8000D8F8008028EA0008DFF8789009F1080910
:100C9000C9F80080D1F8048008F40018B8F5001FE6
:100CA0000ED1DFF8608008F10C08D8F8008048EA1F
:100CB0000008DFF8509009F10C09C9F800800DE038
:100CC000DFF8408008F10C08D8F8008028EA000816
:100CD000DFF8309009F10C09C9F80080521C102A85
:100CE000FFF48EAEBDE8F88700001110001002403E
:100CF00000080140000C01400010014000140140B8
:100D00000800014000040140024693680B400BB10B
:100D1000012000E0002070470AB1016101E00B04EE
:100D20000361704701480068704700001000002010
:100D300002480068401C014908607047100000200C
:100D400010B50848006840F010000649086005200A
:100D500000F06AF80F2000F007F800F019F8002002
:100D600010BD00000020024070B50446074800682E
:100D70004FF47A71B0FBF1F5284600F0E1FB002258
:100D80002146501E00F012F8002070BD0000002027
:100D9000704700BF00F01F020121914042099200FC
:100DA00002F1E022C2F8001100BF70472DE9F05FA8
:100DB00080460D461646002701F034F907463946AD
:100DC0002A46334601F00700C0F1070ABAF1040FC2
:100DD00002D94FF0040A01E0C0F1070AD14600F140
:100DE000040ABAF1070F02D24FF0000A01E0A0F1A5
:100DF000030AD4464FF0010A0AFA09FAAAF1010AD5
:100E00000AEA020A0AFA0CFA4FF0010B0BFA0CFB81
:100E1000ABF1010B0BEA030B4AEA0B0421464046F7
:100E200001F008F9BDE8F09F00BF00F00702064B93
:100E300019684FF6FF031940044B0B4343EA0221A4
:100E4000014B196000BF70470CED00E00000FA058F
:100E500070B504460D4600266248006800F00700A1
:100E6000A8420ED25F48006820F0070028435D4981
:100E700008600846006800F00700A84201D0012081
:100E800070BD207800F00200022807D15648406863
:100E900020F0F000A168084353494860207800F032
:100EA000010000285DD06068012806D14E48006826
:100EB00000F4003090B90120E2E76068022806D112
:100EC0004948006800F0007040B90120D8E7464862
:100ED000006800F0020008B90120D1E742484068EC
:100EE00020F00300616808433F494860FFF71AFF9C
:100EF00006466068012810D108E0FFF713FF801B49
:100F000041F28831884201D90320B9E73648406868
:100F100000F00C000428F0D123E06068022810D112
:100F200008E0FFF7FFFE801B41F28831884201D9BB
:100F30000320A5E72C48406800F00C000828F0D1F9
:100F40000FE008E0FFF7EEFE801B41F28831884297
:100F500001D9032094E72448406800F00C000028E1
:100F6000F0D12048006800F00700A8420ED91D48C3
:100F7000006820F0070028431A4908600846006806
:100F800000F00700A84201D0012079E7207800F0A6
:100F90000400042807D11448406820F4E060E168A8
:100FA000084311494860207800F00800082808D15B
:100FB0000D48406820F46050216940EAC1000A49A8
:100FC000486000F03DF808494968C1F30311074A39
:100FD000515CC840064908600F20FFF7C5FE00209D
:100FE0004EE700000020024000100240E27B0008B3
:100FF0000000002001480068704700000000002049
:1010000000B5FFF7F7FF04494968C1F30221034A1D
:10101000515CC84000BD000000100240F27B000897
:1010200000B5FFF7E7FF04494968C1F3C221034A4D
:10103000515CC84000BD000000100240F27B000877
:10104000F0B585B00FF2700C9CE8E01001A8A0E8A4
:10105000E0101DA52D68009500210024002200232A
:1010600000201A4D696801F00C05FDB1042D02D075
:10107000082D1AD101E016481AE001ADC1F38346EC
:10108000AB5D01F480355DB1104D6D68C5F3404531
:101090001DF805400E4DB5FBF4F505FB03F202E02B
:1010A0000C4D03FB05F2104602E000BF084800BFEC
:1010B00000BF05B0F0BD00000203040506070809E3
:1010C0000A0B0C0D0E0F1010010200000010024060
:1010D00000127A0000093D00F8B50446002520788A
:1010E00000F00100002878D0F848406800F00C00BB
:1010F00004280CD0F548406800F00C00082811D1F5
:10110000F248406800F48030B0F5803F0AD1EF48E3
:10111000006800F4003000285FD0606800285CD1CF
:101120000120F8BD00BF6068B0F5803F06D1E748F8
:10113000006840F48030E549086028E0606858B9EC
:10114000E248006820F48030E04908600846006802
:1011500020F4802008601AE06068B0F5A02F0BD161
:10116000DA48006840F48020D849086008460068E2
:1011700040F4803008600AE0D448006820F48030F1
:10118000D24908600846006820F48020086000BF4B
:10119000606888B1FFF7C6FD054606E0FFF7C2FDAF
:1011A000401B642801D90320BBE7C848006800F44D
:1011B00000300028F2D010E0FFF7B4FD054606E04D
:1011C000FFF7B0FD401B642801D90320A9E7BF4801
:1011D000006800F400300028F2D1207800F002000E
:1011E000022857D1B948406800F00C0050B1B74808
:1011F000406800F00C00082818D1B448406800F49A
:10120000803098B9B148006800F0020020B1206930
:10121000012801D0012084E7AC48006820F0F800E4
:10122000616940EAC100A949086033E02069E8B17A
:101230000120A7490860FFF775FD054606E0FFF7A6
:1012400071FD401B022801D903206AE79F4800680E
:1012500000F002000028F2D09C48006820F0F8005E
:10126000616940EAC1009949086013E0002098498B
:101270000860FFF757FD054606E0FFF753FD401BEA
:10128000022801D903204CE79048006800F00200D2
:101290000028F2D1207800F0080008282DD1A0699C
:1012A000B8B101208B490860FFF73CFD054606E018
:1012B000FFF738FD401B022801D9032031E783489E
:1012C000406A00F002000028F2D0012000F0C8FEC1
:1012D00013E000207F490860FFF724FD054606E083
:1012E000FFF720FD401B022801D9032019E77748AA
:1012F000406A00F002000028F2D1207800F00400DB
:10130000042873D100267148C06900F0805070B97C
:1013100000BF6E48C06940F080506C49C861084603
:10132000C06900F08050009000BF00BF01266A48ED
:10133000006800F48070B0B96748006840F48070BD
:1013400065490860FFF7EEFC054606E0FFF7EAFC9A
:10135000401B642801D90320E3E65F48006800F4DD
:1013600080700028F2D000BFE068012806D15748FD
:10137000006A40F001005549086227E0E06858B96A
:101380005248006A20F00100504908620846006A8D
:1013900020F00400086219E0E06805280BD14B48F2
:1013A000006A40F00400494908620846006A40F0BB
:1013B000010008620AE04548006A20F00100434944
:1013C00008620846006A20F00400086200BFE06876
:1013D000A0B1FFF7A7FC054609E0FFF7A3FC401BFF
:1013E00041F28831884202D903209AE622E0374848
:1013F000006A00F002000028EFD012E0FFF792FC34
:10140000054608E0FFF78EFC401B41F28831884218
:1014100001D9032085E62D48006A00F0020000286B
:10142000F0D1012E05D12948C06920F0805027490C
:10143000C86100BFE069C8B32448406800F00C00F0
:10144000082860D0E069022848D1002020490866B9
:10145000FFF768FC054606E0FFF764FC401B022826
:1014600001D903205DE61948006800F000700028EB
:10147000F2D1206AB0F5803F07D11448406820F4CB
:101480000030A168084311494860D4E908010843C5
:101490000E49496821F4741108430C494860012041
:1014A0000B490866FFF73EFC054607E02DE0FFF715
:1014B00039FC401B022801D9032032E603480068AA
:1014C00000F000700028F2D01FE000000010024081
:1014D00000004242800442420070004000200C495B
:1014E0000866FFF71FFC054606E0FFF71BFC401BE4
:1014F000022801D9032014E60648006800F00070B5
:101500000028F2D101E001200BE6002009E60000EE
:101510000000424200100240042808D14FF0E021B0
:10152000096941F004014FF0E022116107E04FF03A
:10153000E021096921F004014FF0E02211617047B8
:1015400070B504462546681EB0F1807F01D30120A6
:101550000FE0681E4FF0E02148610F214FF0FF308F
:1015600000F068FD00204FF0E0218861072008614D
:10157000002070BD10B504460CB9012010BD94F8D0
:101580003D0028B9002084F83C00204600F00CF80B
:10159000022084F83D00211D206800F0F3FD0120A9
:1015A00084F83D000020E9E7704701460868C068FC
:1015B00040F001000A68D0600868006840F001004F
:1015C0000A6810600020704770470146002200231F
:1015D00091F8392091F83A3042EA03007047000050
:1015E0002DE9F0470446206805682068C668206831
:1015F00047694FF00008C14605F00F08B8F1000F29
:101600000AD105F0200038B106F0200020B12046B4
:1016100000F04CFEBDE8F087B8F1000F6DD007F088
:10162000010018B906F49070002866D005F001009A
:1016300030B106F4807018B1E06B40F00100E06357
:1016400005F0040030B107F0010018B1E06B40F084
:101650000200E06305F0020030B107F0010018B1AC
:10166000E06B40F00400E06305F0080030B107F0E3
:10167000010018B1E06B40F00800E063E06B68B374
:1016800005F0200028B106F0200010B1204600F03F
:101690000DFE20684069C0F38019E06B00F008007F
:1016A00010B9B9F1000F22D0204600F0DFFD20680C
:1016B000406900F04000B0B12068406920F040006F
:1016C00021684861606B50B11748616B4863606B7B
:1016D000FFF734F910B1606B416B88470CE020468E
:1016E000FFF772FF08E02046FFF76EFF04E0204698
:1016F000FFF76AFF0020E0638CE705F0800030B15F
:1017000006F0800018B1204600F008FF82E705F0DF
:10171000400030B106F0400018B1204600F0B6FDA0
:1017200078E700BF76E700005922000810B50446AC
:101730000CB9012010BDA06900B100E000BF94F811
:10174000390028B9002084F83800204600F028F835
:10175000242084F839002068C06820F400502168F3
:10176000C860204600F0F6FD2068006920F4904033
:10177000216808612068406920F02A0021684861DA
:101780002068C06840F400502168C8600020E06311
:10179000202084F8390084F83A000020CAE70000CD
:1017A00010B586B0044625492068884244D100BF60
:1017B0002348806940F00400214988610846806917
:1017C00000F00400019000BF00BF00BF0846806920
:1017D00040F4804088610846806900F480400190B0
:1017E00000BF00BF00BF0846806940F0010088616B
:1017F0000846806900F00100019000BF00BF481555
:10180000029002200390012004900320059002A979
:101810000C48FFF7EBF84FF4806002900020039033
:1018200002A90848FFF7E2F82520FFF7B2FA0322E1
:1018300011462520FFF7BAFA06B010BD0038014066
:10184000001002400008014010B5034693F83A002A
:1018500020282FD101B10AB9012010BD00BF93F893
:101860003800012801D10220F7E7012083F8380071
:1018700000BF99629A85DA850020D863222083F818
:101880003A0000BF002083F8380000BF1868C06825
:1018900040F480701C68E0601868406940F0010006
:1018A0001C6860611868C06840F020001C68E06037
:1018B0000020D2E70220D0E71D4A0168914236D1CC
:1018C0001C49098801F4004189BB1A49098801F4BF
:1018D000804171B1184909780A2903D00021154ABD
:1018E000118024E01349098841F40041114A118014
:1018F0001DE0114909780D2906D10E49098841F4E6
:1019000080410C4A118012E00B490978094A12887B
:10191000C2F30D02094B995406490988491C054A2E
:10192000118011460988C72901DD00211180704707
:10193000003801400C0000200E000020880100202B
:10194000704700BFFEE7000000B585B000BF244827
:10195000806940F00400224988610846806900F0EF
:101960000400009000BF00BF00BF0846806940F03F
:10197000100088610846806900F01000009000BFE8
:1019800000BF00BF0846806940F02000886108461B
:10199000806900F02000009000BF00BF012001908E
:1019A00000200290022003900320049001A90D481A
:1019B000FFF71CF84FF440700190002002900120C6
:1019C00003900320049001A90748FFF70FF80420B3
:1019D000019001A90548FFF709F805B000BD000016
:1019E00000100240000801400010014000140140B6
:1019F00010B5044614B101202F4908702E48007814
:101A000000283BD04FF480712C48FFF77DF980B15E
:101A10004FF400712948FFF777F950B104212848A5
:101A2000FFF772F928B101212648FFF76DF9012867
:101A300024D10A2001F0E6F900201F4908704FF474
:101A400080711E48FFF760F908B9012010BD4FF4FE
:101A500000711A48FFF758F908B90220F6E7042187
:101A60001748FFF751F908B90320EFE7012115489E
:101A7000FFF74AF901281CD10420E7E74FF48071F1
:101A80000E48FFF741F9012813D141020B48FFF737
:101A90003BF901280DD104210948FFF735F9012848
:101AA00007D101210748FFF72FF910B9012002499A
:101AB00008700020CAE70000140000200010014058
:101AC000001401400008014000B585B000BF104877
:101AD000806940F010000E4988610846806900F076
:101AE0001000009000BF00BF4FF4004001900120A3
:101AF0000290039003200490012211460548FFF74D
:101B00000BF901A90348FEF771FF05B000BD000005
:101B100000100240001001402DE9FC4104460D4632
:101B200016466B4606223B21682000F0ECF907467A
:101B3000BFB99DF801009DF8001040EA012000B2F5
:101B400020809DF803009DF8021040EA012000B2B9
:101B500028809DF805009DF8041040EA012000B29D
:101B600030803846BDE8FC812DE9FC4104460D4635
:101B700016466B4606224321682000F0C4F907464A
:101B8000BFB99DF801009DF8001040EA012000B2A5
:101B900020809DF803009DF8021040EA012000B269
:101BA00028809DF805009DF8041040EA012000B24D
:101BB00030803846BDE8FC812DE9F84F6B460222A3
:101BC0004121682000F09FF99DF801009DF8001068
:101BD00040EA01200FFA80FA504605F0F9F88046F5
:101BE00000220B4B04F09CFF06460A4A0A4B04F005
:101BF000E7FE044604F0B2FE83460849584605F065
:101C000005FE044605F066FD00B2BDE8F88F000051
:101C100000407540A4703D0AD74342400000C842CE
:101C200010B500200E4908600E48006820F0704092
:101C30000C4908600846006840F0405008600020E9
:101C40000949C1F89C0100F011F80120044908601D
:101C500000F00CF800200449C1F8980110BD000004
:101C600098812142000C01400080214210B50220E1
:101C700001F0D4F810BD000000B585B000BF0F48DA
:101C8000806940F008000D4988610846806900F0CD
:101C90000800009000BF00BFC0200190012002900A
:101CA0000390032004900122C0210548FFF734F877
:101CB00001A90348FEF79AFE05B000BD00100240DE
:101CC000000C014010B500200E4908600E48006865
:101CD00020F070400C4908600846006840F0405011
:101CE000086001200949C1F89C01FFF7BFFF0120EE
:101CF00004490860FFF7BAFF00200449C1F89801C1
:101D000010BD000098812142000C0140008021425A
:101D100070B5054600241648006820F0704014494C
:101D200008600846006840F000400860002614E0A3
:101D3000002010490860FFF799FF01200E49C1F803
:101D400098016006040E0B487C38006808B1601CDE
:101D5000C4B2FFF78BFF701CC6B2082EE8DB15B9C2
:101D6000FFF7B0FF01E0FFF75BFF204670BD00000A
:101D7000000C0140988121420080214270B5044648
:101D80001248006820F0704010490860084600685A
:101D900040F04050086000200D490860002512E026
:101DA000E0090B49091D08606006040E012009497D
:101DB000C1F89801FFF75AFF002005490860FFF7B6
:101DC00055FF681CC5B2082DEADB70BD000C014050
:101DD000988121420080214210B50E48006820F011
:101DE00070400C4908600846006840F040500860A8
:101DF0000120094908600949C1F89801FFF736FF39
:101E0000002005490860FFF731FF00200349C1F8B1
:101E1000980110BD000C01409C81214200802142AC
:101E200010B50E48006820F070400C490860084664
:101E3000006840F0405008600020094908600949E6
:101E4000C1F89C01FFF712FF012005490860054910
:101E5000C1F89C01FFF70AFF10BD0000000C014013
:101E6000988121420080214210B500241448006866
:101E700020F07040124908600846006840F00040B9
:101E8000086001200F490860FFF7F0FE01200E49AD
:101E9000C1F89801FFF7EAFE07E0601CC4B2FA2C13
:101EA00003DDFFF7BDFF012010BD06488038006844
:101EB0000028F2D10349091F086000BFF4E70000C1
:101EC000000C01409C8121420080214270B50446F3
:101ED000FFF782FFD020FFF751FFFFF7C5FF204635
:101EE000FFF74CFFFFF7C0FFFFF776FFD120FFF7AA
:101EF00045FFFFF7B9FF0020FFF70AFF0546FFF790
:101F00008FFF284670BD2DE9F04106460F46144666
:101F10001D46FFF761FF002141EA4601C8B2FFF705
:101F20002DFFFFF7A1FF20B1FFF77AFF0120BDE8E9
:101F3000F0813846FFF722FFFFF796FFFFF74CFFCF
:101F4000012101EB4601C8B2FFF718FFFFF78CFF34
:101F50000DE0012C04D10020FFF7DAFE287003E029
:101F60000120FFF7D5FE2870601EC4B26D1C002C46
:101F7000EFD1FFF755FF0020D9E770B505460C46B5
:101F8000FFF72AFFD020FFF7F9FEFFF76DFF18B12A
:101F9000FFF746FF012070BD2846FFF7EFFEFFF771
:101FA00063FF2046FFF7EAFEFFF75EFF18B1FFF779
:101FB00037FF0120EFE7FFF733FF0020EBE72DE9C4
:101FC000F04105460E4617469846FFF705FF0021EB
:101FD00041EA4501C8B2FFF7D1FEFFF745FF20B146
:101FE000FFF71EFF0120BDE8F0813046FFF7C6FE77
:101FF000FFF73AFF00240CE018F80400FFF7BEFEDC
:10200000FFF732FF18B1FFF70BFF0120EBE7601C71
:10201000C4B2BC42F0DBFFF703FF0020E3E700BFE0
:10202000FEE7704702480068C0F3022070470000D6
:102030000CED00E010B5002807DA0A07140E054A77
:1020400000F00F031B1FD45403E00A07130E024ACB
:10205000135410BD18ED00E000E400E070470000EC
:1020600008B508490968C9084FF47A72B1FBF2F162
:102070004143009100BF00BF00994A1E0092002911
:10208000F9D108BD00000020704730B58FB005467B
:1020900000240120059000040690002007900220F3
:1020A0000C90C1030D910E9505A8FFF715F8044695
:1020B0000CB100BFFEE70F2000900220019000202D
:1020C00002904FF480600390002004900221684643
:1020D000FEF7BEFE04460CB100BFFEE70FB030BDF8
:1020E00010B5FEF725FE10BD1148006840F0010054
:1020F0000F490860084640680E4908400C4948608E
:10210000084600680C49084009490860084600680C
:1021100020F4802008600846406820F4FE004860F3
:102120004FF41F008860C80304490860704700002E
:10213000001002400000FFF8FFFFF6FE08ED00E08F
:1021400010B50E480068C06800F0010080B10C496D
:1021500008698047002009490968486200BF4FF4B8
:102160007A7006490968C86201460448C16000BF28
:102170006FF0010001490968086110BDA00200204C
:102180009400002000220268184B984208D0B0F159
:10219000804F05D0164B984202D0164B984203D17F
:1021A00022F070024B681A43104B984208D0B0F1ED
:1021B000804F05D00E4B984202D00E4B984203D16F
:1021C00022F44072CB681A4322F080024B691A4312
:1021D00002608B68C3620B688362044B984201D132
:1021E0000B6903630123436170470000002C014029
:1021F000000400400008004038B505460C4600BF0A
:102200001248C06940F004001049C8610846C0691E
:1022100000F00400009000BF00BF032211461E2002
:10222000FEF7C4FD1E20FEF7B4FD09480949086009
:102230000846446000218160C560016180218161A0
:10224000FFF798F90348FFF7B0F938BD00100240D6
:1022500000080040A002002070B505466C6A00200E
:10226000E085E0842046FFF7AFF970BD0168C968DA
:1022700021F490710268D1600168496921F001017F
:1022800002685161202180F83A10704710B5044669
:102290002068C06820F040002168C860202084F8D1
:1022A00039002046FFF74CFB002010BD70B50446F6
:1022B00094F83A0022284AD1A068B0F5805F13D183
:1022C000A56A206940B920684068C0F308002880EA
:1022D000A06A801CA06219E020684068C0B2288013
:1022E000A06A401CA06211E0206938B920684068EB
:1022F000C1B2A26A501CA062117007E02068406859
:1023000000F07F01A26A501CA0621170E08D401E97
:1023100080B2E085C8B92068C06820F0200021683C
:10232000C8602068C06820F480702168C860206898
:10233000406920F0010021684861202084F83A00BB
:102340002046FFF7B9FA002070BD0020FCE702200C
:10235000FAE700002DE9F0410446002520680069F5
:1023600020F44050E1680843216808612169A068B1
:1023700008436169084305432068C06841F20C6165
:10238000884328432168C8602068406920F4407071
:10239000A1690843216848615F49206888425CD18F
:1023A000FEF73EFE00EBC00101EB00106168890002
:1023B000B0FBF1F6FEF734FE00EBC00101EB0010BC
:1023C00061688900B0FBF1F06421B0FBF1F000EB33
:1023D000C00101EB0010A6EB8000322101EB0010E0
:1023E0006421B0FBF1F000F0F006FEF719FE00EBFF
:1023F000C00101EB001061688900B0FBF1F06421BD
:10240000B0FBF1F006EB0016FEF70AFE00EBC00190
:1024100001EB001061688900B0FBF1F7FEF700FEE8
:1024200000EBC00101EB001061688900B0FBF1F026
:102430006421B0FBF1F000EBC00101EB0010A7EB51
:102440008000322101EB00106421B0FBF1F000F0BC
:102450000F003044216888605BE0FEF7D1FD00EB9F
:10246000C00101EB001061688900B0FBF1F6FEF7D6
:10247000C7FD00EBC00101EB001061688900B0FBF3
:10248000F1F06421B0FBF1F000EBC00101EB0010B2
:10249000A6EB8000322101EB00106421B0FBF1F0CB
:1024A00000F0F006FEF7ACFD00EBC00101EB001000
:1024B00061688900B0FBF1F06421B0FBF1F006EB3C
:1024C0000016FEF79DFD00EBC00101EB00106168F6
:1024D0008900B0FBF1F7FEF793FD00EBC00101EBC3
:1024E000001061688900B0FBF1F06421B0FBF1F0ED
:1024F00000EBC00101EB0010A7EB8000322101EBE3
:1025000000106421B0FBF1F000F00F0030442168AE
:102510008860BDE8F081000000380140014691F874
:10252000390021282CD18868B0F5805F0FD10A6A64
:102530001088C0F308000B685860086918B9086A69
:10254000801C086209E0086A401C086205E00B6A0A
:10255000581C086218780B685860C88C401E80B2FE
:10256000C88458B90868C06820F080000B68D8603B
:102570000868C06840F040000B68D86000207047D1
:102580000220FCE710B500240C48FFF729F800BF33
:1025900001E0641C00BF0948FFF717F82028F8D1B4
:1025A00000BF002401E0641C00BF0122044903486D
:1025B000FFF74AF90028F6D100BF10BD50020020F5
:1025C0000E00002000BFFEE7490050EAC12018BFFE
:1025D00004204A0D18BF40F0010040F2FF72B2EB38
:1025E000515F08BF40F00200012808BF0520704776
:1025F0002DE9F0414F1E00EBC7010446D1E900016F
:1026000015461E4637F006020DD02A46334604F022
:10261000F7FB7F1E04EBC703D3E9002304F0D0F9D6
:1026200037F00602F1D1022F25D0042F13D0062F48
:1026300018BFBDE8F0812A46334604F0E1FBD4E937
:102640000A2304F0BDF92A46334604F0D9FBD4E945
:10265000082304F0B5F92A46334604F0D1FBD4E947
:10266000062304F0ADF92A46334604F0C9FBD4E949
:10267000042304F0A5F92A46334604F0C1FBD4E94B
:10268000022304F09DF92A46334604F0B9FBD4E94D
:102690000023BDE8F04104F093B9012205F05BBAD4
:1026A00004F08EB9002213461046114604F038BAE1
:1026B000024A0020110705F04EBA000001FDFFFF9D
:1026C00030380A2801D2012070470020704700BF2F
:1026D000704700002DE9FE4F06460F46002568466C
:1026E00001F0A8F9002442E056F8240057F824101D
:1026F000A0EB010ABAF1000F01DB514601E0CAF17B
:102700000001084605F022F883464FF08F4104F09F
:10271000EBFE80465DF82400002104F0A7FF16D0F0
:102720005DF82410404604F0DFFE82464FF07E51F3
:1027300005F06AF9814629F0004A0F48416A50467F
:1027400005F030F912D20120A04005430EE00A48FE
:10275000C169404605F026F805D30748016A40469E
:1027600005F020F902D20120A0400543641C032C8F
:10277000BADB2846BDE8FE8F247C00082DE9F04D29
:102780008D4F21F0004A86B005460C46BA452ADB3B
:10279000AAEB070028430AD08848824501DC1AD1F9
:1027A000CDB106B02846BDE8F04DFFF776BF844AAC
:1027B000844B284604F024FB07460E46824A834B8E
:1027C0002846214604F01CFB06B03A463346BDE8D5
:1027D000F04D04F0F5B80120FDF788FF06B0BDE824
:1027E000F04DFFF75FBF7A48824542DABAF1795F70
:1027F0000BDA2846FFF7E8FE042808BFFFF758FF6A
:10280000284606B02146BDE8F08D2A460B46104604
:1028100004F0F6FA834602466E480E460B46062141
:102820007844FFF7E5FE5A46334604F0E9FA80465D
:1028300069488A465A46334604217844FFF7D8FE51
:102840005A46334604F0DCFA00223B4604F0B8F85E
:1028500002460B464046514604F062F92A4623469A
:1028600004F0CEFA06B02A462346BDE8F04D04F047
:10287000A7B8284624F0004100223D463B4604F01C
:10288000BDFB4FF0FF3205F066F90646024653489D
:102890000F460B4606217844FFF7AAFE32463B4618
:1028A00004F0AEFACDE900014D4832463B46042122
:1028B0007844FFF79DFE32463B4604F0A1FA002221
:1028C0002B4604F07DF8834602913046394602F0EB
:1028D00059FF804643480D46504517DCDDE90001AD
:1028E0005A46029B04F01CF942462B4604F088FA33
:1028F00042462B4604F064F8012205F02CF9304AD8
:10290000304B04F06DFC304A304B4CE04FF0000A85
:1029100052460B46404604F053F8CDE903105246A8
:102920002B461046194604F06BFA32463B4604F03B
:1029300065FBDDE9033204F0F3F806460F46DDE9F6
:1029400000015A46029B04F0EBF8834600910122F5
:102950003046394605F0FFF8194A1A4B04F04EFB91
:1029600006460F4601224046294605F0F4F85A462D
:10297000009B04F045FA32463B4604F031FC064623
:102980000F4601225046294605F0E5F80E4DDFF8C6
:1029900058802A46434604F031FB32463B4604F059
:1029A0002DFB2A46434604F029FB002CD8BF81F0BA
:1029B000004106B0BDE8F08D0000F03F0000F07F60
:1029C000075C143326A6913C182D4454FB21F93F93
:1029D0000000E03F5C60000072600000E65F000005
:1029E000FC5F00003333EF3FFB21E93F2DE9F84F57
:1029F00004460D4621F0004000917349814211DCEC
:102A00007249884201DC06D12CB120462946BDE836
:102A1000F84FFFF742BE6E48002DCCBF6D496E499E
:102A2000BDE8F88F6D49814211DD6D498142D8BF03
:102A30004FF0FF366DDD20462946FFF7C5FD04281F
:102A400008BFFFF735FE20462946BDE8F88F6549E7
:102A5000654F25F00045814233DD6449814219DD2F
:102A6000002632464FF080432046294603F0A8FF57
:102A700080468A4601222046294605F06CF800224D
:102A80003B4604F0ADFB4246534604F049F8044689
:102A90000D463EE001260022BA463B462046294626
:102AA00003F08EFF80460F460022534620462946FB
:102AB00004F096FB42463B4604F032F804460D46CD
:102AC00027E04B4981421BDDDFF828A102260022C6
:102AD00053462046294604F093F900223B4603F072
:102AE0006FFF80460F46002253462046294604F0D9
:102AF00077FB42463B4604F013F804460D4608E0D7
:102B0000032622462B4600203B4904F009F80446E0
:102B10000D4622462B461046194604F071F98B46A5
:102B2000824602460B4604F06BF9074602463348DC
:102B300088460B4606217844FFF75AFD52465B460D
:102B400004F05EF982462E488B463A4643460521FC
:102B50007844FFF74DFD3A46434604F051F90246EA
:102B60000B46002E504659460CDA03F029FF224648
:102B70002B4604F045F901B022462B46BDE8F04F44
:102B800004F03CBA03F01CFF22462B4604F038F94F
:102B90001C4A7A4402EBC603D3E9002304F020FB6D
:102BA00022462B4604F01CFB174A7A4402EBC6036C
:102BB000D3E9002304F022FA009A002AB8BF81F07A
:102BC0000041BDE8F88F0000000010440000F07FD5
:102BD000182D4454FB21F93FFB21F9BF0000DC3FD5
:102BE0000000203E0000F33F0000F03F0000E63F01
:102BF000008003400000F83F0000F0BFFE5D0000D1
:102C0000BC5D00005A5D0000225D00002DE9F04D22
:102C10009446CCF1000423F000464CEA0404524FE1
:102C200046EAD4749A46884621F00042BC4206D84F
:102C3000454240EA050442EAD474BC4204D9BDE8E6
:102C4000F04D6246FFF72CBDAAF14055A5F17F6516
:102C500055EA0C040BD0022404EAAA74434DDFF8B1
:102C600010E144EAD87452EA000B04D00CE0BDE84D
:102C7000F04DFFF7BBBE002C14BF012CBDE8F08D5A
:102C8000022C30D0032C32D056EA0C0B0AD0BE42B4
:102C900020D1BA4209D126F0804622F08042334644
:102CA000114617E000291ADB25E0DFF8C8B0FB4425
:102CB000002C04BFDBE90001BDE8F08D012C02BF50
:102CC000DBE9000181F00041BDE8F08D022C0AD063
:102CD000032C0CD0BA4212D1B8F1000F0BDA234802
:102CE0002549BDE8F08D28462449BDE8F08D2846E9
:102CF0007146BDE8F08D1D482149BDE8F08D921B5D
:102D000012153C2AC4BF19481D490EDCBAF1000F48
:102D1000BEBF12F13C0F0020014606DB624603F005
:102D2000FFFE21F00041FFF761FE002C08BFBDE867
:102D3000F08D012C04BF81F00041BDE8F08D114AF7
:102D4000114B022C07D004F04BFA2A46BDE8F04D97
:102D50000A4B04F045BA04F043FA2A46BDE8F04DA8
:102D6000064B04F04BB900000000F07F182D4454CE
:102D7000FB2109C0B65C0000FB21F9BFFB21094023
:102D8000FB21F93F075C143326A6A13C2DE9F04155
:102D90000446E07800F0C006E07800F03F05607877
:102DA00000F0010098B1EF102846E91705EB5171CA
:102DB000C910A5EBC101491C01F0FF080B480068D0
:102DC00020B10A48414602683846904700BF607803
:102DD00000F0080030B10548406818B1B011034A4E
:102DE000516888470020BDE8F08100009002002073
:102DF00010B504460420FEF78FFB0148046010BDA7
:102E00000400002030B50446002504E04FF47A7039
:102E100000F004F86D1CA542F8D330BD70B5034630
:102E200000224FF0E02675690D4E366803FB06F46C
:102E30004FF0E026B16910E04FF0E026B06988421B
:102E40000BD0884202D20E1A324402E02E1A0E44EF
:102E500032440146A24200D300E0EDE700BF70BD5E
:102E60000400002038B5044664B120208DF800002D
:102E700028208DF8010030208DF8020038208DF8D0
:102E8000030004E0A32204216846FDF7A7FB6A467D
:102E9000042140F69E2002F09FFB01F089FF38BD1F
:102EA0003EB5044602208DF80000CA208DF80100CE
:102EB000E3208DF8020009208DF803006A46042102
:102EC000682002F089FBA3208DF8000004F0400088
:102ED00048B1C0208DF80100C8208DF80200C22042
:102EE0008DF8030006E0A3208DF801008DF80200A4
:102EF0008DF8030004F4C07048B1C4208DF80400BC
:102F0000CC208DF80500C6208DF8060006E0A32031
:102F10008DF804008DF805008DF80600A3208DF8CB
:102F200007008DF808008DF809006A460A2140F66E
:102F3000A72002F051FB04F0030018B120208DF807
:102F4000000002E0D8208DF800006A46012140F61A
:102F5000B62002F041FB04F0200018B1012000F07F
:102F6000ADF802E0002000F0A9F804F4C07008B346
:102F700004F4807060B1B2208DF800008B208DF8D1
:102F80000100B6208DF802009B208DF803000BE0B5
:102F9000B0208DF8000080208DF80100B4208DF85D
:102FA000020090208DF803006A46042140F6A2201A
:102FB00002F012FB04F0010020B3F8208DF80000AD
:102FC0006A4601214FF40B6002F006FBFA2107204C
:102FD00000F02CFC072000F0F3FB012000F013FCB4
:102FE000642000F0F3FC4FF4FA7000F002FDC821F9
:102FF000304800F0A3FB282000F0BCFB0A2000F0C2
:10300000CCFB08E0D8208DF800006A4601214FF47F
:103010000B6002F0E1FA04F0020018B1D9208DF83B
:10302000000002E0D8208DF800006A46012140F23D
:103030003D7002F0D1FA04F0040018B1012000F054
:1030400069F802E0002000F065F804F0100018B103
:103050000120FFF707FF02E00020FFF703FF44F025
:1030600008001549488101F0A3FE00201249887329
:1030700004F0400018B10846807B801D887304F47A
:10308000C07020B10C48807B801D0B49887304F010
:10309000140020B10848807B10300749887304F081
:1030A000030020B10448807B001D03498873002081
:1030B0003EBD000009E3CA02900200203EB504466E
:1030C0006CB10EA1D1E900208968CDE90020029100
:1030D0006A4609214FF4976002F07EFA3EBD0AA2CB
:1030E000D2E900109268CDE9010200916A460921F7
:1030F0004FF4976002F070FAF0E70000B8AAB38DC1
:10310000B4980D355D000000B8AAAAAAB088C3C55E
:10311000C700000038B5044664B1C0208DF8000037
:10312000C2208DF80100C4208DF80200C6208DF861
:10313000030004E08B2204216846FDF74FFA6A463B
:10314000042140F6982002F047FA01F031FE38BD24
:1031500010B5C8234FF48062024940F6F63001F002
:10316000BBFC10BD4C7C00082DE9F04F8DB007462C
:10317000884615469946DDE9166B0024002030800C
:103180006B49887B5A4605A901F072FD18B1601E93
:103190000DB0BDE8F08F6648807A00F0140000287A
:1031A00067D09DF8140000069DF8151040EA014014
:1031B0009DF8161040EA01209DF81710084328607A
:1031C0009DF8180000069DF8191040EA01409DF88E
:1031D0001A1040EA01209DF81B10084368609DF812
:1031E0001C0000069DF81D1040EA01409DF81E10CD
:1031F00040EA01209DF81F100843A8609DF82000B8
:1032000000069DF8211040EA01409DF8221040EA96
:1032100001209DF823100843E86004F11000C4B2B7
:10322000286800140190686800140290A8680014CF
:103230000390E8680014049001984043029901FB50
:103240000100039901FB0100049901FB010ABAF195
:10325000706F02DBBAF1885F05DD01F0A9FD002087
:103260003080401E94E7B6F9000040F48070308052
:1032700000BF2F48807A00F0400020B305A9601CF1
:10328000085C095D40EA012000B2A8F8000005A929
:10329000E01C095C05AAA01C105C41EA002000B2F9
:1032A000A8F8020005A9601D095C201D105C41EA18
:1032B000002000B2A8F80400A01DC4B2B6F90000B6
:1032C00040F0080030801A48408900F4C07008B30C
:1032D00005A9601C085C095D40EA012000B2388045
:1032E00005A9E01C095C05AAA01C105C41EA0020AD
:1032F00000B2788005A9601D095C201D105C41EAC0
:10330000002000B2B880A01DC4B2B6F9000040F0A1
:10331000700030800648807A00F0030018B105A9DB
:103320000819FFF733FD484601F068F800202FE741
:103330009002002070B588B0064601A801F020FA7E
:10334000BDF804000021C90341EA5045C4034448C4
:10335000007A00F0030056F8200005904048007AFB
:1033600000F0040010B10598404205903C48007AF6
:10337000C0F3C10056F8200006903948007A00F0EA
:10338000200010B10698404206903548007AC0F3FC
:10339000811056F8200007903148008900F48070B1
:1033A00010B10798404207900598C117A0FB04236D
:1033B00001FB043100FB0510810041EA9270059089
:1033C0000698C117A0FB042301FB043100FB051084
:1033D000810041EA927006900798C117A0FB042370
:1033E00001FB043100FB0510810041EA9270079057
:1033F0000598000E8DF808000598000C8DF809005E
:103400000598000A8DF80A000598C0B28DF80B00E7
:103410000698000E8DF80C000698000C8DF80D0033
:103420000698000A8DF80E000698C0B28DF80F00BD
:103430000798000E8DF810000798000C8DF8110009
:103440000798000A8DF812000798C0B28DF8130093
:1034500002AA0C214FF4257002F0BEF808B070BD2E
:103460009002002030B585B0044616A207CA02AB10
:1034700007C3C82C03DD4FF0FF3005B030BDC820B6
:1034800090FBF4F0401E85B2280A8DF80000E8B2E7
:103490008DF801006A46022140F2162002F09CF8E5
:1034A00010B14FF0FF30E8E702AA0C2140F6C1202E
:1034B00002F092F810B14FF0FF30DEE7044884814B
:1034C0000020DAE7FEF2ABC4AAF1DFDFBBAFDFDF3B
:1034D000900200201FB504464848007A00F003001F
:1034E00054F8200001904548007A00F0040010B123
:1034F0000198404201904148007AC0F3C10054F85D
:10350000200002903D48007A00F0200010B102989F
:10351000404202903948007AC0F3811054F82000EC
:1035200003903648008900F4807010B1039840423F
:1035300003903349019880FB0101800F40EA81002C
:1035400001902F49029880FB0110820042EA91709D
:1035500002902B49039880FB0110820042EA91708F
:1035600003900198000E8DF800000198000C8DF872
:1035700001000198000A8DF802000198C0B28DF890
:1035800003006A4604214FF4747002F025F818B164
:103590004FF0FF3004B010BD0298000E8DF800000F
:1035A0000298000C8DF801000298000A8DF80200C4
:1035B0000298C0B28DF803006A4604214FF475707A
:1035C00002F00AF810B14FF0FF30E3E70398000E65
:1035D0008DF800000398000C8DF801000398000A94
:1035E0008DF802000398C0B28DF803006A460421EA
:1035F0004FF4767001F0F0FFCCE70000900200205D
:1036000009E3CA0210B586B0044647A000680390DB
:1036100046A00068029046A00068019045A000689E
:10362000009004F0030003A9085C8DF8140003A8BF
:10363000C4F3C101405C8DF8150003A8C4F38111E7
:10364000405C8DF8160004F0030002A9085C8DF8B8
:10365000100002A8C4F3C101405C8DF8110002A85B
:10366000C4F38111405C8DF8120005AA032140F2D9
:10367000264001F0B1FF18B14FF0FF3006B010BD89
:1036800004AA032140F22A4001F0A6FF10B14FF036
:10369000FF30F3E7019805900098049004F00400CF
:1036A00058B19DF8140040F001008DF814009DF809
:1036B000100040F001008DF8100004F0200058B117
:1036C0009DF8150040F001008DF815009DF81100DF
:1036D00040F001008DF8110004F4807058B19DF89D
:1036E000160040F001008DF816009DF8120040F021
:1036F00001008DF8120005AA03214FF4886001F043
:103700006BFF10B14FF0FF30B8E704AA032140F27D
:10371000314001F061FF10B14FF0FF30AEE70648D5
:1037200004810020AAE700004CCD6C000CC92C00DD
:10373000365676002646660090020020F8B505460B
:103740000E464FF47A7095FBF0F000FB06F4200E65
:103750008DF80000200C8DF80100200A8DF8020081
:10376000E0B28DF803006A4604214FF4AE7001F018
:1037700033FFF8BD38B50446052094FBF0F084B261
:1037800020128DF80000E0B28DF801006A46022197
:103790004FF4AD7001F020FF38BD38B50446052068
:1037A00094FBF0F084B220128DF80000E0B28DF8A6
:1037B00001006A4602214FF4AC7001F00DFF38BDE4
:1037C00038B504460020009004F0010020B19DF8B7
:1037D000000040F03000009004F0020020B19DF89D
:1037E000000040F00C00009004F0040020B19DF8AF
:1037F000000040F0030000906A4601214FF4A470DD
:1038000001F0EAFE38BD38B50446012C01DA012486
:1038100002E0042C00DD0424601EC0B200906A4661
:10382000012140F24F1001F0D7FE38BD2DE9FC47D1
:1038300006460F4606F0070010B1B7F5C86F03DD66
:103840004FF0FF30BDE8FC87384603F097FF814614
:10385000594903F049FE8046684600F06BFF9DF829
:103860000000022806D0042816D0082826D01028E8
:1038700048D135E04FF08D41404603F0C7FF814607
:1038800003F044FF84B24D49404603F0BFFF814638
:1038900003F03CFF85B238E04FF08C41404603F026
:1038A000B5FF814603F032FF84B24549404603F03C
:1038B000ADFF814603F02AFF85B226E04FF08B4131
:1038C000404603F0A3FF814603F020FF84B23D4948
:1038D000404603F09BFF814603F018FF85B214E0D9
:1038E0004FF08A41404603F091FF814603F00EFFFE
:1038F00084B23549404603F089FF814603F006FF54
:1039000085B202E04FF0FF309CE700BF20128DF837
:103910000400E0B28DF8050028128DF80600E8B228
:103920008DF8070006F00100A0B101AA02214FF4B2
:10393000EA7001F051FE10B14FF0FF3082E70DF157
:10394000060202214FF4927001F046FE10B14FF0D2
:10395000FF3077E706F00200A0B101AA02214FF480
:10396000EC7001F039FE10B14FF0FF306AE70DF155
:10397000060202214FF4947001F02EFE10B14FF0B8
:10398000FF305FE706F00400A0B101AA02214FF466
:10399000EE7001F021FE10B14FF0FF3052E70DF153
:1039A000060202214FF4967001F016FE10B14FF09E
:1039B000FF3047E7002045E700004843000040464D
:1039C0000000C045000040450000C04438B5044632
:1039D000052094FBF0F085B228128DF80000E8B2C3
:1039E0008DF801006A4602214FF4EF7001F0F4FDFA
:1039F00038BD38B50446052094FBF0F085B2281296
:103A00008DF80000E8B28DF801006A4602214FF4FB
:103A1000ED7001F0E1FD38BD00BF054A126802F00B
:103A20004002002AF9D0C2B2014B1B1D1A60704738
:103A3000003801407CB5054628494968087801AB43
:103A400004220D21FEF75FFA08B107207CBD9DF826
:103A50000700C0F301109DF8041001F0E00140EAF6
:103A6000E1008DF800009DF80700C0F381009DF88B
:103A7000051001F0E00140EAE1008DF801009DF839
:103A8000070000F003009DF8061001F0E00140EA95
:103A9000E1008DF8020000241CE01DF8040018B9B4
:103AA000002045F8240013E00D4845F8240006E006
:103AB00055F824000B4903F0A9FE45F824001DF831
:103AC0000400401EC0B20DF804000028F0D100BF71
:103AD000601CC4B2032CE0DB0020B7E71800002014
:103AE0007B14AE3E1D5A843F2DE9F04F87B005464A
:103AF0000C46914601208DF8100000208DF8110031
:103B0000FE4A1268917CFD4A5268107804AB02228A
:103B1000FEF755FA20B14FF0FF3007B0BDE8F08F47
:103B2000C820FFF76FF900208DF81000F34A1268E3
:103B3000D17BF24A5268107804AB0122FEF73FFABB
:103B400010B14FF0FF30E8E7EC4A12685179EB4AC8
:103B50005268107804AB0122FEF731FA10B14FF031
:103B6000FF30DAE7E54A1268917CE44A526810783F
:103B700004AB0122FEF723FA10B14FF0FF30CCE77F
:103B8000DE4A1268D17DDD4A5268107804AB01220A
:103B9000FEF715FA10B14FF0FF30BEE7D74A1268B2
:103BA0001179D64A5268107804AB0122FEF707FA61
:103BB00010B14FF0FF30B0E70C208DF81000CF4A65
:103BC00012681179CD4A5268107804AB0122FEF7D1
:103BD000F6F910B14FF0FF309FE70F20FFF712F911
:103BE000C648806A407A8DF81000C44A12689178FD
:103BF000C24A5268107804AB0122FEF7E0F910B116
:103C00004FF0FF3089E7BD48806A007A8DF81000D8
:103C1000BA4A12685178B94A5268107804AB012246
:103C2000FEF7CDF910B14FF0FF3076E7B9F1000F94
:103C300007D0B248806A807A40F0E0008DF810002A
:103C400004E0AE48806A807A8DF81000AB4A1268B2
:103C50009179AA4A5268107804AB0122FEF7AFF9B5
:103C600010B14FF0FF3058E7B9F1000F07D0A3486B
:103C7000806AC07A40F0E0008DF8100003E0A048B0
:103C8000C07A8DF810009D4A1268D1799B4A52681B
:103C9000107804AB0122FEF792F910B14FF0FF301B
:103CA0003BE7B9F1000F02D0C820FFF7ABF8402086
:103CB0008DF81000914A12681179904A5268107874
:103CC00004AB0122FEF77BF910B14FF0FF3024E77F
:103CD00078208DF81000894A12685179874A526815
:103CE000107804AB0122FEF76AF910B14FF0FF30F3
:103CF00013E783498889FFF785F800208DF81000C5
:103D00007E4A126851797D4A5268107804AB0122CC
:103D1000FEF755F910B14FF0FF30FEE6774A126812
:103D2000917A764A5268107804AB0222FEF7EBF8DB
:103D300010B14FF0FF30F0E69DF811009DF8101023
:103D400040EA012B0C209BFBF0F0C6B20020A860DB
:103D500068602860A06060602060824665E0674A15
:103D60001268D17A654A5268107804AB0C22FEF7CB
:103D7000CAF810B14FF0FF30CFE69DF811009DF862
:103D8000101040EA012000B2ADF808009DF81300C1
:103D90009DF8121040EA012000B2ADF80A009DF82B
:103DA00015009DF8141040EA012000B2ADF80C0097
:103DB000BDF90810206808442060BDF90A10606849
:103DC00008446060BDF90C10A0680844A0609DF82C
:103DD00017009DF8161040EA012000B2ADF800006F
:103DE0009DF819009DF8181040EA012000B2ADF8C6
:103DF00002009DF81B009DF81A1040EA012000B255
:103E0000ADF80400BDF90010286808442860BDF929
:103E10000210686808446860BDF90410A868084486
:103E2000A8600AF1010000F0FF0AB24597DB3448B0
:103E3000D0F800C02868C117090441EA10410704FE
:103E4000624600233846FCF7F0F932460023CDE9FC
:103E50000201FCF7EAF928602948D0F800C0686838
:103E6000C117090441EA104107046246002338469D
:103E7000FCF7DBF932460023CDE90201FCF7D5F966
:103E800068601F48D0F800C0A868C117090441EA5B
:103E900010410704624600233846FCF7C6F9324653
:103EA0000023CDE90201FCF7C0F9A8601448D0F85E
:103EB00004C02168C817000440EA11480F04624694
:103EC000002338464146FCF7B0F932460023CDE9DD
:103ED0000201FCF7AAF920600948D0F804C0606824
:103EE000C117090441EA104107046246002338461D
:103EF000FCF79BF93246002304E000001800002084
:103F0000247C0008CDE90201FCF78FF960601148BC
:103F1000D0F804C0A068C117090441EA10410704A1
:103F2000624600233846FCF780F932460023CDE98B
:103F30000201FCF77AF9A060A068002804DDA068FF
:103F4000A0F58030A06003E0A06800F58030A0609C
:103F50000020E2E5247C00082DE9FC5F06460F46C0
:103F600000253D494968087801AB03220D21FDF782
:103F7000CAFF10B10720BDE8FC9F9DF8040000F0C7
:103F80001F008DF804009DF8050000F01F008DF85B
:103F900005009DF8060000F01F008DF806000024C3
:103FA00056E056F8240057F82410A0EB010BBBF1A3
:103FB000000F01DB594601E0CBF10001084603F098
:103FC000C5FB4FF08F41009003F08EFA814601A8A7
:103FD000005D68B32149086803F0D0FB8346594669
:103FE0001F4803F081FA804604E01E49404603F072
:103FF0000DFC804601A8005D401EC0B201A9085515
:104000000028F2D14146484603F06EFA83464FF04D
:104010007E5103F0F9FC82462AF0004B0F4881697B
:10402000584603F0BFFC12D20120A04005430EE029
:104030000A480169484603F0B5FB05D307484169C2
:10404000484603F0AFFC02D20120A0400543641CA7
:10405000032CA6DB28468EE718000020247C0008ED
:1040600000B04C4554E3853F10B50446204600F0AF
:104070000FF80346E01C00F00BF843EAC00083B2DF
:10408000A01D00F005F843EA801083B2184610BD69
:10409000014691F90020002A01DD00201EE091F97F
:1040A0000020002A01DA042018E091F90120002AFA
:1040B00001DD012012E091F90120002A01DA05203A
:1040C0000CE091F90220002A01DD022006E091F9BE
:1040D0000220002A01DA062000E0072070470000D5
:1040E0008AB0002600270125FCF72AFE4FF4E010D5
:1040F000FDF7CBFF4820FEF77BFE4FF4E13001F0E7
:1041000067FBFDF7E1FCFDF71FFC482001F05CFFB9
:1041100075A0FCF7AFF87AA0FCF7ACF80EE07CA035
:10412000FCF7A8F84FF4FA70FEF76CFE7D480068C3
:1041300008B9012000E000207A49086000F0AAFADE
:104140000028ECD178A0FCF795F8CCE00020FDF732
:104150004FFC0746042F0CD10DB9012000E00020D0
:1041600005461DB174A0FCF785F802E076A0FCF7C7
:1041700081F807AA08A909A800F07AF9002872D1E5
:10418000FDF71AFD044604AA05A906A8FDF7C4FC1C
:1041900001AA02A903A8FDF7E7FC002D63D00A20BD
:1041A00096FBF0F100FB11600028E8D1002C0FDA3B
:1041B000604204B20A2094FBF0F100FB1148642035
:1041C00094FBF0F94246494663A0FCF753F80CE033
:1041D0000A2094FBF0F100FB1148642094FBF0F9F5
:1041E0004246494661A0FCF745F86549099803F045
:1041F0000DFB804603F06EFA04B2002C0EDA60422A
:1042000004B20A2094FBF0F100FB114894FBF0F992
:10421000424649465BA0FCF72DF80BE00A2094FBD0
:10422000F0F100FB114894FBF0F9424649465AA0D0
:10423000FCF720F85249089803F0E8FA804603F0AA
:1042400049FA04B2002C0FDA604204B20A2094FB4F
:10425000F0F100FB114894FBF0F94246494653A0A7
:10426000FCF708F80CE03CE00A2094FBF0F100FBBE
:10427000114894FBF0F94246494651A0FBF7FAFF7A
:104280003F49079803F0C2FA804603F023FA04B2CC
:10429000002C0EDA604204B20A2094FBF0F100FB1D
:1042A000114894FBF0F9424649464AA0FBF7E2FF69
:1042B0000BE00A2094FBF0F100FB114894FBF0F9AD
:1042C0004246494648A0FBF7D5FF10A0FBF7D2FFB6
:1042D00000261448006808B9012000E000201149B8
:1042E0000860701CC6B231E7414C49454E54454BFD
:1042F000204E414E4F2053544D33320D0A000000E2
:104300004D50553630353020544553540D0A000079
:104310004D505536303530204572726F7221212153
:104320000D0A0000BC0122424D5055363035302078
:104330004F4B0D0A000000004745544441544120B2
:104340004F4E0D0A0000000047455444415441209F
:104350004F46460D0A0000002054656D703A20203B
:104360002D25642E2564430D0A0000002054656D40
:10437000703A202025642E2564430D0A00000000B9
:10438000000020412050697463683A202D25642E76
:104390002564430D0A0000002050697463683A20C8
:1043A0002025642E2564430D0A00000020526F6C06
:1043B0006C3A20202D25642E2564430D0A00000050
:1043C00020526F6C6C3A202025642E2564430D0A20
:1043D00000000000205961773A20202D25642E2509
:1043E00064430D0A00000000205961773A20202024
:1043F00025642E2564430D0A00000000704700006C
:1044000070B50446002624F00104184890F82400F2
:1044100008B1002070BD1548807A10B94FF0FF3008
:10442000F8E71248057C807A204010490874084655
:10443000007CA04202D04FF0FF3600E0002614B905
:104440000A48007D18B1012001F054F902E0002073
:1044500001F050F93CB100F0ABFC20B10348057409
:104460004FF0FF30D6E73046D4E7000018000020B8
:104470002DE9F04F99B004460D4616464FF07E5791
:104480004FF000084FF000094FF0000A12A813A9DE
:1044900018AB0EAACDE9001014A916A8FEF764FE09
:1044A00018B1012019B0BDE8F08FBDF84C0000F440
:1044B000807000287ED00E9803F048F983464FF0B4
:1044C0009D4103F011F807460F9803F03FF983462A
:1044D0004FF09D4103F008F88046109803F036F93C
:1044E00083464FF09D4102F0FFFF8146119803F093
:1044F0002DF983464FF09D4102F0F6FF8246394682
:104500004FF0804003F082F94946059003F07EF9B0
:10451000414607904FF0404003F078F9514605902E
:1045200003F074F90690079902F070FF834602F0D9
:1045300041FFCDE90801FEF721F94FF06632544BF7
:10454000CDE90A0102F05CFCCDE90C0102F006FAAB
:10455000206049464FF0804003F058F949460290E8
:1045600003F054F9414604904FF0404003F04EF9F7
:104570004146029003F04AF90390049903F044FA8B
:1045800083464FF07E5102F041FF059002F012FF8A
:10459000CDE9080139464FF0804003F037F9414634
:1045A000039003F033F9494604904FF0804003F044
:1045B0002DF900E068E05146039003F027F98346A7
:1045C000049902F023FF059002F0F4FECDE9060104
:1045D000DDE90823FEF71AFB4FF066322C4BCDE9DC
:1045E0000A0102F00DFCCDE90C0102F0B7F92860D8
:1045F0005146504603F00AF949460490484603F0F4
:1046000005F941460390404603F000F93946019010
:10461000384603F0FBF80090019902F0F7FE029093
:10462000039903F0F1F98346049903F0EDF905903D
:1046300002F0C0FECDE908015146384603F0E6F825
:1046400049460490404603F0E1F80390049902F0D3
:10465000DDFE4FF08041059003F0D8F8834602F06C
:10466000A9FECDE90601DDE90823FEF7CFFA4FF0F8
:104670006632074BCDE90A0102F0C2FBCDE90C011D
:1046800002F06CF9306001E002200BE7002009E73E
:1046900066A64C4070B50024FDF7EEFA00F024F950
:1046A000002840D1782000F02FFFC4B20CB10120C7
:1046B00070BD7820FFF7A4FEC4B20CB10220F7E76A
:1046C000642000F0D3FEC4B20CB10320F0E7FEF783
:1046D0003FFDC4B20CB10420EAE71548FFF7C4FC63
:1046E0000546FEF78FFFC4B20CB10520E0E740F2AB
:1046F0007310FEF7D5FBC4B20CB10620D8E76420D6
:10470000FEF7B0FEC4B20CB10720D1E700F0A7FF5E
:1047100004460CB10820CBE7012000F0A3FDC4B291
:104720001CB10920C4E70A20C2E70020C0E700004E
:104730004400002001461148407A30B1012807D0DA
:10474000022808D003280CD108E0022008700BE0F2
:104750000420087008E00820087005E010200870A8
:1047600002E04FF0FF30704700BF0448C07C18B132
:1047700008784006000E08700020F4E718000020BA
:1047800001461348407A30B1012808D002280AD0E7
:10479000032810D10BE04FF4804008800EE041F672
:1047A0009C7008800AE04FF48050088006E04FF4C7
:1047B0000060088002E04FF0FF30704700BF0448FF
:1047C000C07C10B10888401008800020F5E7000088
:1047D0001800002001460248007C08700020704745
:1047E0001800002001460F48007A30B1012807D098
:1047F000022809D003280FD10AE0FA2008800EE031
:104800004FF4FA7008800AE04FF47A70088006E0EE
:104810004FF4FA60088002E00020088000BF00BF6B
:10482000002070471800002001460E48007A30B181
:10483000012807D0022808D003280CD108E00A4834
:1048400008600BE00948086008E00948086005E0D6
:104850000848086002E04FF0FF30704700BF0020BA
:10486000FBE7000018000020000003430000834223
:10487000333303423333834101461248C07A082858
:1048800017D2DFE800F01704070A0D101318BC2038
:10489000088013E06220088010E02A2008800DE0E4
:1048A000142008800AE00A20088007E0052008801C
:1048B00004E000BF00BF0020088000BF00BF002050
:1048C00070470000180000200146064890F82400B8
:1048D00010B14FF0FF3070470248C08908800020B7
:1048E000F9E70000180000201CB580208DF80000BA
:1048F000654A1268917C644A526810786B460122BE
:10490000FDF75DFB10B14FF0FF301CBD6420FEF7DA
:1049100079FA00208DF800005B4A1268917C5A4AAF
:10492000526810786B460122FDF749FB10B14FF039
:10493000FF30EAE7544A1268917D534A5268107872
:104940006B460622FDF7DFFA10B14FF0FF30DCE7CF
:104950009DF80500C007400F9DF8031001F001010C
:1049600040EA41009DF8011001F0010140EA010414
:1049700094B1012C03D101214348C17431E0022CD0
:1049800003D100214048C1742BE021463FA0FBF732
:1049900071FC4FF0FF30B8E73B4A1268D1783A4AD1
:1049A000526810786B460122FDF7ADFA10B14FF056
:1049B000FF30AAE79DF8000000F00F042CB93D4835
:1049C000FBF758FC4FF0FF309FE7042C06D13AA0CC
:1049D000FBF750FC01212C48C17402E000212A4859
:1049E000C174FF2128488172FF2027490872FF21E6
:1049F00025484172C1724FF6FF71C181FF210174D8
:104A000081740121017380F82210002180F82310A5
:104A1000417501751630016041608160163880F87B
:104A2000241080F82510C1844FF4FA6000F062FC75
:104A300010B14FF0FF3068E7022000F02BFB10B1FF
:104A40004FF0FF3061E72A2000F0CEFC10B14FF0AC
:104A5000FF305AE7322000F009FD10B14FF0FF306F
:104A600053E70020FFF7CCFC10B14FF0FF304CE7CC
:104A7000002000F051FB10B14FF0FF3045E700205F
:104A800000F042FD002040E718000020556E7375CD
:104A900070706F7274656420736F6674776172658D
:104AA0002070726F64756374207265762025642EA1
:104AB0000A0000007089000848616C662073656E0A
:104AC0007369746976697479207061727420666F95
:104AD000756E642E0A0000002DE9F04385B005468E
:104AE0000E4690469946294890F8250020B14FF08F
:104AF000FF3005B0BDE8F08316B94FF0FF30F8E79E
:104B0000002423E0281B102801DD102000E0281BD2
:104B100087B232193946204600F05EFD10B14FF0E1
:104B2000FF30E6E701AA3946204600F001F910B14E
:104B30004FF0FF30DDE730193A4601A9FBF722FDBF
:104B400010B16FF00100D4E7E01984B2AC42D9DBB8
:104B50004FEA28208DF8000008F0FF008DF80100D2
:104B60000A4A1268917E094A526810786B460222FE
:104B7000FDF725FA10B14FF0FF30BAE701210348E5
:104B800080F82510A0F826900020B2E71800002039
:104B900038B50446282C02DD4FF0FF3038BDDCB9B3
:104BA000002000F0EBFB00208DF8000007208DF8BE
:104BB00001002E4A1268917C2C4A526810786B468C
:104BC0000222FDF7FCF910B14FF0FF30E6E70021BB
:104BD000264801750020E1E7012000F0CFFB2020EE
:104BE0008DF80000012C06D100208DF80100052071
:104BF00000F0FAFB17E0052C06DC01208DF801001F
:104C0000052000F0F1FB0EE0142C06DC02208DF8EC
:104C100001000A2000F0E8FB05E003208DF8010008
:104C2000142000F0E1FB9DF80100072101EB80104A
:104C3000C0B28DF801000D4A1268917C0B4A52688F
:104C400010786B460222FDF7BAF910B14FF0FF3031
:104C5000A4E7082105488172002101730121017533
:104C60000020FFF7CDFB002098E70000180000208F
:104C7000F8B504460F4616462C4890F8240010B9A3
:104C80004FF0FF30F8BD2948807A10B94FF0FF305F
:104C9000F8E7264A1268917A244A526810786B46DF
:104CA0000222FDF730F910B14FF0FF30EAE79DF82E
:104CB00001009DF8001040EA0125A54203DA00201A
:104CC0003070401EDEE7194840684088B5EB600F41
:104CD00017DD164A1268517C144A526810786B46E8
:104CE0000122FDF710F910B14FF0FF30CAE79DF82F
:104CF000000000F0100020B100F05AF86FF0010041
:104D0000C0E7E2B2094B1B68D97A084B5B68187898
:104D10003B46FDF7F8F810B14FF0FF30B2E795FBD6
:104D2000F4F0401E30700020ACE7000018000020B6
:104D3000F8B504460D46164616B94FF0FF30F8BDDB
:104D40001A48807A10B94FF0FF30F8E720128DF83A
:104D50000000E0B28DF801009DF8010028441349DD
:104D600049684989884202DD4FF0FF30E7E70F4A82
:104D70001268117E0D4A526810786B460222FDF7C8
:104D80001EF910B14FF0FF30D9E7EAB2074B1B68AC
:104D9000597D064B5B6818783346FDF7B4F810B1BF
:104DA0004FF0FF30CBE70020C9E7000018000020DB
:104DB00008B57048807A10B94FF0FF3008BD002068
:104DC00000906C4A1268D17B6A4A526810786B4630
:104DD0000122FDF7F4F810B14FF0FF30EEE7654A1D
:104DE00012685179634A526810786B460122FDF7C8
:104DF000E6F810B14FF0FF30E0E75E4A1268117933
:104E00005C4A526810786B460122FDF7D8F810B161
:104E10004FF0FF30D2E7574890F82400002853D0D5
:104E20000C200090534A12681179524A5268107847
:104E30006B460122FDF7C3F810B14FF0FF30BDE71C
:104E40003220FDF7DFFFC02000904A48807A00F052
:104E5000010020B19DF8000040F020000090454A7C
:104E600012681179434A526810786B460122FDF7A7
:104E7000A6F810B14FF0FF30A0E73E48407C10B1DB
:104E80000220009001E0002000903A4A1268D17B95
:104E9000384A526810786B460122FDF790F810B13D
:104EA0004FF0FF308AE700200090324A12685179B3
:104EB000304A526810786B460122FDF780F80028CE
:104EC00055D04FF0FF3079E704200090294A12684E
:104ED0001179284A526810786B460122FDF76FF865
:104EE00010B14FF0FF3069E72248807C20B921489B
:104EF000807A00F0010010B94020009001E06020AD
:104F000000901C4A126811791A4A526810786B4650
:104F10000122FDF754F810B14FF0FF304EE7322078
:104F2000FDF770FF1348407C10B10120009001E0B4
:104F3000002000900F4A1268D17B0E4A5268107808
:104F40006B460122FDF73BF810B14FF0FF3035E71B
:104F5000084A12685179074A52681078054B103395
:104F60000122FDF72CF810B14FF0FF3026E70020AA
:104F700024E70000180000202DE9F04F8DB0834693
:104F80000F4602200C90424890F8240020B10020E7
:104F900000F068F9012600E0002603A8FFF722FCD4
:104FA00005A8FFF7C7FB01A8FFF766FC02A8FFF7FB
:104FB0008BFC374890F80AA004A8FFF70BFC0024EC
:104FC00007E0002239465846FEF78EFD00B902E0A0
:104FD000641C022CF5DB00BF022C01D1002528E067
:104FE000002407E0012206A909A8FEF77DFD00B90B
:104FF00002E0641C022CF5DB00BF022C01D100256D
:1050000017E006A93846FDF765FB00F0FF0809A97F
:105010005846FEF7A1FF00F0FF090025B9F1000F87
:1050200001D145F00105B8F1000F01D145F00205AD
:1050300000BFFF2016490872FF2115484172C17256
:105040004FF6FF71C181FF2181720174012101734B
:10505000BDF80C0000F04EF99DF8140000F01AF8AD
:10506000BDF8040000F0C0F9BDF8080000F0FEF93A
:10507000504600F049FA9DF81000FFF7C1F916B14B
:10508000012000F0EFF828460DB0BDE8F08F0000D9
:105090001800002038B504461E48807A10B94FF039
:1050A000FF3038BD022C06D0042C07D0082C08D0C5
:1050B000102C0CD108E0002000900BE0082000909C
:1050C00008E01020009005E01820009002E04FF06A
:1050D000FF30E6E700BF0F48407A9DF80010B0EBC4
:1050E000E10F01D10020DCE70A4A1268D179094AB0
:1050F000526810786B460122FCF761FF10B14FF047
:10510000FF30CEE79DF80000C11002484172002038
:10511000C7E700001800002038B504465048807CDE
:10512000A04201D1002038BD002C46D04C4A126864
:1051300011794B4A526810786B460122FCF7E3FE66
:1051400010B14FF0FF30EEE79DF8000020F0200096
:105150000090434A12681179414A526810786B46B0
:105160000122FCF72CFF10B14FF0FF30DBE70320EA
:10517000FDF748FE02200090394890F8220020B147
:105180009DF8000040F080000090354890F8230022
:1051900020B19DF8000040F030000090304A1268C5
:1051A000117D2F4A526810786B460122FCF707FFE9
:1051B000002851D04FF0FF30B5E7294A1268117925
:1051C000274A526810786B460122FCF79CFE10B10A
:1051D0004FF0FF30A7E72248807A00F0010028B1A5
:1051E0009DF8000040F02000009004E09DF80000D1
:1051F00020F0200000901A4A12681179184A52686B
:1052000010786B460122FCF7DAFE10B14FF0FF3048
:1052100089E70320FDF7F6FD114890F8220010B150
:105220008020009001E0002000900D4890F82300BD
:1052300020B19DF8000040F030000090084A12684C
:10524000117D074A526810786B460122FCF7B7FEC1
:1052500010B14FF0FF3066E701488474002062E728
:105260001800002038B50446214890F82400A042D8
:1052700001D1002038BD24B31D4890F8250010B995
:105280004FF0FF30F6E7002000F034FA0020FFF77F
:1052900043FF1749C88C00F0E9F80020009014493A
:1052A000496808786B4601222321FCF788FE01211A
:1052B0000F4880F82410012000F01CFAFFF778FD59
:1052C00013E0002000F016FA0948007C009008491D
:1052D000496808786B4601222321FCF770FE002103
:1052E000034880F82410FFF763FD0020C2E70000A8
:1052F0001800002038B504461F48807A10B94FF0D6
:10530000FF3038BDFA2C09D0B4F5FA7F09D0B4F5D6
:105310007A7F09D0B4F5FA6F0CD108E00020009034
:105320000BE00820009008E01020009005E0182015
:10533000009002E04FF0FF30E3E700BF0E48007A34
:105340009DF80010B0EBE10F01D10020D9E70A4A27
:1053500012689179084A526810786B460122FCF76E
:105360002EFE10B14FF0FF30CBE79DF80000C010CB
:10537000014908720020C4E71800002038B504462F
:10538000184890F82300A04201D1002038BD14B184
:105390003020009001E0002000901248807C20B175
:1053A0009DF8000040F0020000900E4890F82200A6
:1053B00020B19DF8000040F080000090094A12687A
:1053C000117D084A526810786B460122FCF7F7FD00
:1053D00010B14FF0FF30D9E7024880F82340002099
:1053E000D4E700001800002038B504461E48807A33
:1053F00010B94FF0FF3038BDBC2C02DB012000900B
:1054000015E0622C02DB0220009010E02A2C02DB67
:10541000032000900BE0142C02DB0420009006E037
:105420000A2C02DB0520009001E0062000900E48C7
:10543000C07A9DF80010884201D10020DBE70A4ABB
:1054400012689178084A526810786B460122FCF77E
:10545000B6FD10B14FF0FF30CDE79DF800100248C7
:10546000C1720020C7E700001800002038B50446CC
:105470002448807A10B94FF0FF3038BD214890F8A9
:10548000240010B14FF0FF30F7E71E48007D50B107
:1054900034B1282C04DCE0B2FFF77AFB0020ECE703
:1054A0000020FFF775FB042C01DA042404E0B4F5B6
:1054B0007A7F01DD4FF47A744FF47A7090FBF4F048
:1054C000401EC0B200900F4A126851780D4A5268CF
:1054D00010786B460122FCF772FD10B14FF0FF30DF
:1054E000CBE79DF80000401C4FF47A7191FBF0F07F
:1054F00081B20448C1810146C9894810FFF774FF91
:105500000020BAE71800002038B5044604F0700007
:1055100010B10120009005E014B10020009001E0DE
:10552000402000902B4A1268917C2A4A52681078D9
:105530006B460122FCF743FD20B100212548817212
:10554000481E38BD9DF8000020F04001214801733D
:105550000020009004F0400020B99DF8000040F0C9
:105560000400009004F0200020B99DF8000040F0F5
:105570000200009004F0100020B99DF8000040F0F7
:105580000100009004F0080020B99DF8000040F0F0
:10559000380000900F4A1268D17C0E4A5268107889
:1055A0006B460122FCF70BFD20B1002109488172F6
:1055B000481EC6E724B1082C02D00020FFF7DEFE0B
:1055C00004488472002101753220FDF71BFC002085
:1055D000B7E7000018000020F8B504460D4616464F
:1055E00016B94FF0FF30F8BD1A48807A10B94FF065
:1055F000FF30F8E720128DF80000E0B28DF80100CE
:105600009DF801002844134949684989884202DD10
:105610004FF0FF30E7E70F4A1268117E0D4A5268DB
:1056200010786B460222FCF7CAFC10B14FF0FF3035
:10563000D9E7EAB2074B1B68597D064B5B681878BF
:105640003346FCF7BCFC10B14FF0FF30CBE7002035
:10565000C9E700001800002001460868704770B5CF
:1056600088B002A905A8FFF787FC0446032C3ED1A9
:1056700001A8FFF7D9F8059802F068F806460199E5
:1056800002F0C4F8054602F025F80590069802F0ED
:105690005DF80646019902F0B9F8054602F01AF8DD
:1056A0000690079802F052F80646019902F0AEF80B
:1056B000054602F00FF8079005A8FDF70BFF6846B6
:1056C000FFF75EF8BDF80010029848430290BDF85D
:1056D0000010039848430390BDF800100498484315
:1056E000049002A8FDF726FE002008B070BD01203E
:1056F000FBE7000038B50446214890F82400C0B10B
:1057000014B10220009001E0002000901C4A1268B1
:10571000D17B1B4A526810786B460122FCF74FFC84
:1057200010B14FF0FF3038BD9DF80010144841749F
:1057300023E01348807A10B94FF0FF30F3E724B12B
:105740000F48407C08B10020EDE714B10120009023
:1057500001E0002000900A4A1268D17B084A526892
:1057600010786B460122FCF72AFC10B14FF0FF3095
:10577000D9E79DF80010024841740020D3E70000EB
:10578000180000202DE9F04106460F4601F042FCCA
:10579000041E0D4618BF0120284320F00040C0F130
:1057A0007F6000F1E040C00F0ED0301C18BF012018
:1057B000384320F00040C0F17F6000F1E040C00FAE
:1057C00004BF0120FAF792FF20462946BDE8F08188
:1057D00010B5044609480A4908600846446000219B
:1057E0008160C160016181610C214161FBF79EFF15
:1057F000012204490248FCF727F810BD0038014097
:10580000500200200E00002030B595B0054613ABC5
:1058100012AA09A9284600F03FFA044614B120460E
:1058200015B030BD0020149026E0224909689DF88B
:10583000502001EBC20113AB11AA486801A900F086
:105840002BFA04460CB12046EAE709A901A800F0AA
:10585000E1FC60B99DF844009DF84810884201DDE4
:105860000220DDE79DF85000124988750AE09DF896
:105870005000401CC0B214900E48007D9DF850109E
:105880008842D2DC00BF0B48007D9DF85010884252
:1058900001D10420C4E714A9284600F0DDFA04462B
:1058A0000CB12046BCE79DF8500002494875002025
:1058B000B6E70000940000202DE9F0419AB09C4822
:1058C000847D007DA04202DC1AB0BDE8F0819849D9
:1058D000096801EBC40106AB07AA486808A900F0F3
:1058E000DBF908A993A0FAF7C5FC002644E090482C
:1058F000008B0121B1400840D8B122218FA0FAF7D6
:10590000B9FC304600F02EFB89492431471839464E
:105910008BA0FAF7AFFC222188A0FAF7ABFC304647
:1059200000F020FB82492431084410A941F82600E8
:1059300018E0304600F016FB7D492431085810A9C4
:1059400041F826007A48C07D30B910A850F82610DA
:105950007CA0FAF78FFC05E010A850F826107AA07A
:10596000FAF788FC9DF81C00401EB04202D078A0D7
:10597000FAF780FC701CC6B29DF81C008642B6DBAC
:1059800074A0FAF777FC00F03FFB6948407D0B28D4
:105990000DD2DFE800F0060D151E27323F4E5F7274
:1059A00087006349096851F834008047054690E054
:1059B0005F4A126852F8341010988847054688E00C
:1059C0005B4B1B6853F83420DDE910019047054616
:1059D0007FE0574F3F6857F8343010A807C8984702
:1059E000054676E0DFF848C1DCF800C05CF83470AA
:1059F00010A80FC8B84705466BE01498DFF830C10F
:105A00000090DCF800C05CF8347010A80FC8B847EC
:105A100005465EE0DDE91401DFF814C1CDE90001BF
:105A2000DCF800C05CF8347010A80FC8B847054611
:105A30004FE0DDE914121698DFF8F4C0CDE900124A
:105A40000290DCF800C05CF8347010A80FC8B847AA
:105A500005463EE0DDE91423DDE91610DFF8D0C08D
:105A6000CDE90023CDE90210DCF800C05CF8347009
:105A700010A80FC8B84705462BE0DDE91523DDE97E
:105A80001710CDE90123CDE903101498DFF8A0C069
:105A90000090DCF800C05CF8347010A80FC8B8475C
:105AA000054616E0DDE91623DDE91810CDE90223ED
:105AB000CDE90410DDE91401DFF874C0CDE900017F
:105AC000DCF800C05CF8347010A80FC8B847054671
:105AD00000BF00BF00F056FA9DF8180001280CD155
